:020000040800F2
:1000000000400220FD6F0008590E00085B0E00083A
:1000100000000000000000000000000000000000E0
:100020000000000000000000000000005D0E00085D
:1000300000000000000000005F0E0008610E0008D4
:100040004D7000084D7000084D7000084D7000089C
:100050004D7000084D7000084D7000084D7000088C
:10006000650E0008750E00084D7000084D70000800
:100070004D700008850E00084D7000084D70000896
:100080004D7000084D7000084D7000084D7000085C
:100090004D700008950E00084D7000084D70000866
:1000A0004D7000084D7000084D7000084D7000083C
:0C00B0004D7000084D7000084D700008F5
:1000BC000023C25C0133002AFBD1581E704700009C
:1000CC0003B47146490840004900095E49008E445A
:1000DC0003BC7047002934D00123002210B488429D
:1000EC002CD301242407A14204D2814202D209015B
:1000FC001B01F8E7E400A14204D2814202D249007C
:10010C005B00F8E7884201D3401A1A434C08A0421E
:10011C0002D3001B5C0822438C08A04202D3001BB4
:10012C009C082243CC08A04202D3001BDC082243CB
:10013C00002803D01B0901D00909E3E7100010BC0B
:10014C00704701B5002000F05FF802BD0029F8D01F
:10015C0003B5FFF7C1FF0EBC4243891A1847C046CE
:10016C00002941D010B404004C40A44601230022C5
:10017C00002900D54942002800D5404288422CD3A2
:10018C0001242407A14204D2814202D209011B019D
:10019C00F8E7E400A14204D2814202D249005B009C
:1001AC00F8E7884201D3401A1A434C08A04202D304
:1001BC00001B5C0822438C08A04202D3001B9C0845
:1001CC002243CC08A04202D3001BDC0822430028A7
:1001DC0003D01B0901D00909E3E710006446002C89
:1001EC0000D5404210BC704701B5002000F00CF85F
:1001FC0002BDC0460029F7D003B5FFF7B3FF0EBC14
:10020C004243891A1847C0467047C04610B5064C81
:10021C002378002B07D1054B002B02D0044800E0BB
:10022C0000BF0123237010BD580100200000000006
:10023C00D8830008044B10B5002B03D003490448A5
:10024C0000E000BF10BDC046000000005C010020B3
:10025C00D883000810B51C4A136801331360FA22C6
:10026C005200934200D210BD174B00221A60174B5C
:10027C001A7851424A41D2B21A7053425A41D2B200
:10028C008021C901124804F0E5FC124B1B68002BBD
:10029C000BD1114B1B68002B07D1104B1B68002B8B
:1002AC0003D10F4B1B68002B06D0802100220902C2
:1002BC00074804F0CFFCD6E780210122090204484C
:1002CC0004F0C8FCCFE7C046780100207401002080
:1002DC00000800508C0100208801002084010020BF
:1002EC008001002010B500F053FF10BD10B58AB08E
:1002FC000400026801920022029203920179049197
:10030C0005920692079208920992437B012B0FD01B
:10031C000B48621D01A905F07FFA002806D1637B0A
:10032C00012B07D0074A1368013313600AB010BDC4
:10033C000548EEE7054A136801331360F6E7C0463B
:10034C004003002080010020A40300208401002031
:10035C0030B595B013294AD90378042B49D019D854
:10036C00012B33D0032B42D1314B1B68314A04ACE7
:10037C00314909680291314909680191304909688C
:10038C0000914021200006F03BFF81B22000FFF7D6
:10039C00A9FF2CE0052B2AD1254A00231360284AFB
:1003AC001360264A1360244A136004AC254B2200C8
:1003BC0023CB23C2196811601B7913712000FFF73E
:1003CC0077FE81B22000FFF78DFF10E0436804AC8C
:1003DC000493037A23714378637301000931082273
:1003EC001520684407F009F82000FFF77FFF15B0CF
:1003FC0030BD4378012B0DD0022BF8D1427A124B31
:10040C001A70531E9A41D2B2802109020F4804F08F
:10041C0021FCECE7427A0E4B1A70531E9A41D2B271
:10042C008021A0200902C00504F014FCDFE7C046BF
:10043C008C010020F083000880010020880100203E
:10044C00840100201C8400087C0100200004005062
:10045C007D01002070B58CB00C006B4602AA4021C7
:10046C0005F004FA00281FD1134B1E78701C0A21CA
:10047C00FFF7C0FECDB2114B1B78AB4214D0029BE0
:10048C000F4836013350059B8019037144730530B6
:10049C000822694606F0B1FF074B1D70012C05D0F0
:1004AC00084A1368013313600CB070BD064A136818
:1004BC0001331360F8E7C046910100209001002041
:1004CC0094010020880100208C01002010B50368E5
:1004DC00094A934203D0094A934206D010BDC9077A
:1004EC00FCD54021FFF7B6FFF8E70907F6D5402108
:1004FC00FFF7B0FFF2E7C046006400400068004020
:10050C007047000010B5094B984203D0084B984235
:10051C0006D010BD80218901064804F0A1FBF8E744
:10052C0080218901034804F09BFBF2E7A40300201F
:10053C00400300200008005010B50268034B9A429B
:10054C0000D010BD04F042FDFBE7C046002C01407A
:10055C0072B6FEE710B59AB00BAC3C22002120001D
:10056C0006F0CEFE1022002107A806F0C9FE1822C4
:10057C00002101A806F0C4FE8020800004F0A8FC35
:10058C002A230B93D6330E938023DB031293002381
:10059C000F93402210923F3A11920132139214920F
:1005AC0015930933169380239B0217938023DB0446
:1005BC0018938023DB051993200003F001FD00281C
:1005CC0027D107A807230793053B436000238360CB
:1005DC00C360012103F0DCFF00281CD10F4BDA6B48
:1005EC00802149020A43DA63DB6B0B400093009BCA
:1005FC0001A8002301938022920542608360084B7E
:10060C00C36022230361023B436104F039FA1AB040
:10061C0010BDFFF79DFFFFF79BFFC0460010024087
:10062C007FBB000030B58DB004F0BCFCFFF792FF2F
:10063C0000F09CF800F0DAF900F0F0F900F00AF99B
:10064C0000F012FA00F07AFB00F0E2FA00F0C8FABF
:10065C0000F094FC3B4D280005F0C8F83A4C200003
:10066C0005F0C4F800220121280005F08BF90022C6
:10067C000121200005F086F98021344C01228901EA
:10068C00200004F0E7FA80210122C901200004F0C7
:10069C00E1FA802101220902200004F0DBFA06A80D
:1006AC002B4B020032CB32C232CB32C2172100F0BC
:1006BC006FFD04F097FC05002DE004F093FC0500A1
:1006CC00172106A800F064FD2FE001AC0222227075
:1006DC00204A1B01D118487B60709B5802930B7900
:1006EC002372053108220D20684406F086FE142181
:1006FC002000FFF7F7FD184C207801300A21FFF796
:10070C0079FD2170144B1B78144A12789A42DCD173
:10071C00012004F06DFC124805F0B2FA04F062FC02
:10072C00401BFA239B009842C7D8FFF793FD0D4B53
:10073C0019780029E6D00C48FFF70AFE094B002275
:10074C001A70DFE7A40300204003002000080050CB
:10075C0030840008940100209001002091010020B9
:10076C00080400203402002038020020F0B5DE46D8
:10077C0057464E464546E0B58BB005AC14220021D9
:10078C00200006F0BDFD304B596B04221143596318
:10079C00596B0A400192019A5A6B012632435A63F3
:1007AC005A6B32400292029A596B022211435963DE
:1007BC00596B0A400392039A596B082211435963EF
:1007CC005B6B1A400492049BE0252D021F4B9B4649
:1007DC0000222900180004F03DFA90231B029A46CF
:1007EC001B4B994600225146180004F033FA802323
:1007FC001B029846A027FF0500221900380004F0C0
:10080C0029FA059506960025079508952100584666
:10081C0004F060F953460593069607950895210058
:10082C00484604F057F943460593069607950895F4
:10083C002100380004F04EF90BB0F0BCBB46B246B8
:10084C00A946A046F0BDC04600100240000800506A
:10085C000004005000B585B00C22002101A806F060
:10086C004FFD3548354B03608023DB054360002387
:10087C008360C3608022920302610422426103768A
:10088C00437683760132C2611B32835443628362A6
:10089C000C3283540363263A4263826336328354A8
:1008AC00C36404F0C3FB002834D101A901230193D4
:1008BC0000234B608B60204804F0DAFC00282CD11C
:1008CC0001A91F4B019304234B601B4804F0D0FC7F
:1008DC00002825D101A91B4B019308234B60164816
:1008EC0004F0C6FC00281ED101A9174B01930C2360
:1008FC004B60114804F0BCFC002817D101A9134B24
:10090C00019310234B600C4804F0B2FC002810D16A
:10091C0005B000BDFFF71CFEC7E7FFF719FECFE7D8
:10092C00FFF716FED6E7FFF713FEDDE7FFF710FE25
:10093C00E4E7FFF70DFEEBE7D802002000240140AE
:10094C0002000004400000188000001C001000B0E1
:10095C0010B588B004001422002103A806F0D0FCC6
:10096C0022681E4B9A4201D008B010BD1C4B1A6C69
:10097C00802149030A431A641A6C0A400192019AB5
:10098C00596B0122114359635B6B1A400292029B13
:10099C0003A9C3230393C03B4B60A020C00504F004
:1009AC0099F81048104B03600523436000238360C3
:1009BC00C36080220261803242618022D200826157
:1009CC002022C261036204F09BF9002803D1054B7D
:1009DC0023659C62C8E7FFF7BBFDF8E700240140E4
:1009EC0000100240780200200800024000B583B0DD
:1009FC00094A916B012319439163926B1340019344
:100A0C00019B00220021092004F0BCFA092004F00B
:100A1C00BDFA03B000BDC0460010024010B510482E
:100A2C00104B0360002343608360C3600122027497
:100A3C00427483740421416182610131C1610339C3
:100A4C00016242628262C262026343638363C36374
:100A5C0004F0DAFD002800D110BDFFF779FDFBE7AB
:100A6C00A40300200064004010B51048104B036034
:100A7C00002343608360C360012202744274837458
:100A8C000421416182610131C16103390162426219
:100A9C008262C262026343638363C36304F0B4FD86
:100AAC00002800D110BDFFF753FDFBE740030020E9
:100ABC000068004010B59CB004001422002117A857
:100ACC0006F01EFC4C22002104A806F019FC236839
:100ADC003D4A934204D03D4A93423BD01CB010BDDA
:100AEC0080239B04049304A803F04CFE002823D11C
:100AFC00374A136801331360012B20D0354A516BF0
:100B0C00082319435163526B13400193019B17A99E
:100B1C000323179302224A6000228A60CA600B6189
:100B2C002D4803F0D7FF00220021152004F02AFAEB
:100B3C00152004F02BFAD1E7FFF70AFDD8E7254B77
:100B4C00DA6B802149010A43DA63DB6B0B400093BB
:100B5C00009BD3E780239B04049304A803F012FEAC
:100B6C00002822D11A4A136801331360012B1FD0BD
:100B7C00184A516B022319435163526B1A4003926A
:100B8C00039A17A9032217924B6000238B60CB604A
:100B9C000A61124803F09EFF00220021152004F088
:100BAC00F1F9152004F0F2F998E7FFF7D1FCD9E739
:100BBC00084BDA6B802149010A43DA63DB6B0B408B
:100BCC000293029BD4E7C0460064004000680040DA
:100BDC003C03002000100240000C005000040050A8
:100BEC0010B50848084B036000234360074BC360F3
:100BFC00836005F011F8002800D110BDFFF7A8FCA8
:100C0C00FBE7C0460804002000300040FF0F000046
:100C1C0010B51148114B036082235B004360002325
:100C2C008360E022D200C2600361436180229200A3
:100C3C008261E13AFF3AC261036243628362193A0C
:100C4C00C26203630833436305F022F8002800D125
:100C5C0010BDFFF77DFCFBE71804002000380040B6
:100C6C0010B588B004001422002103A806F048FB3C
:100C7C002268104B9A4201D008B010BD0E4BDA6BB3
:100C8C008021C9010A43DA63DA6B0A400192019AA6
:100C9C00596B0222114359635B6B13400293029B05
:100CAC0003A9D023DB0103934A60044803F012FF2D
:100CBC00E2E7C0460038004000100240000400503B
:100CCC0082B00268074B9A4201D002B07047064AC4
:100CDC00D16B04231943D163D26B13400193019B55
:100CEC00F3E7C046000800400010024010B586B083
:100CFC0004001422002101A806F002FB22680C4B10
:100D0C009A4201D006B010BD0A4A516B0223194316
:100D1C005163526B1A400092009A01A9F022920082
:100D2C0001924B6007330B61034803F0D3FEE9E7F4
:100D3C0000080040001002400004005000B58FB0C5
:100D4C00102200210AA806F0DBFA0C22002107A8C9
:100D5C0006F0D6FA1C220021684606F0D1FA384873
:100D6C00384B03603F23436000238360364AC260E4
:100D7C000361836100F092FE002846D180235B0161
:100D8C000A932F480AA901F03FF8002840D12C48BB
:100D9C0000F0E4FE00283ED1294800F0AFFE002808
:100DAC003CD107A9002307938B60254801F0B0F8CC
:100DBC00002836D1694660230093002301930293E7
:100DCC0004931F48002200F071FF00282CD11C480E
:100DDC000422694600F06AFF002828D150230093B2
:100DEC0017480822694600F02BFF002822D1602307
:100DFC00009313480C22694600F058FF00281CD1C0
:100E0C000F48FFF773FF0FB000BDFFF7A1FBB5E76D
:100E1C00FFF79EFBBBE7FFF79BFBBDE7FFF798FBDC
:100E2C00BFE7FFF795FBC5E7FFF792FBCFE7FFF7AF
:100E3C008FFBD3E7FFF78CFBD9E7FFF789FBDFE7E5
:100E4C007C04002000080040204E0000FEE7FEE776
:100E5C00704770477047000010B5024801F0A0FEC3
:100E6C0010BDC046101C002010B5024803F0B6FFA0
:100E7C0010BDC0467802002010B5024800F0F8FC06
:100E8C0010BDC046C804002010B5034804F0FFFD97
:100E9C00024804F0FCFD10BDA40300204003002018
:100EAC0000B583B00B4B196C012211431964196CFA
:100EBC000A400092009ADA6B802149050A43DA63F2
:100ECC00DB6B0B400193019BC020C00004F0A2F827
:100EDC0003B000BD0010024030B587B00500214BB7
:100EEC001A6C802109010A431A641B6C0B40009395
:100EFC00009B02AC01A9200003F02AFC059B002BEF
:100F0C0017D103F011FC1849FFF7E4F8421E174BF8
:100F1C00174918001960174BC36042600023036126
:100F2C008360836100F0BAFD041E06D0200007B078
:100F3C0030BD03F0F9FB4000E5E70C4800F050FC35
:100F4C00041EF3D10D2004F021F8032D01D9012446
:100F5C00ECE7002229000D2004F014F8064B1D606C
:100F6C00E4E7C0460010024040420F00C8040020D5
:100F7C00002C0140E70300006C00002010B5124962
:100F8C001248002204F008FF002811D110490F4824
:100F9C0004F02AFF00280ED10E490C4805F0B5FFCD
:100FAC0000280BD1094804F051FF002809D110BDCD
:100FBC00FFF7CEFAEAE7FFF7CBFAEDE7FFF7C8FA4F
:100FCC00F0E7FFF7C5FAF2E7340000201405002023
:100FDC00B80000205400002012230B8000487047FA
:100FEC002000002004230B80004870471C000020C8
:100FFC0030B500230AE05D0037344C5500015C002D
:10100C0001340C19002525700133DBB2934206D252
:10101C00040F092CEFD85D0030344C55EEE730BD91
:10102C0070B50B4B18680B4B1D680B4B1B68C0182D
:10103C00002800D170BD094C08222100FFF7D8FF11
:10104C002100103104222800FFF7D2FFF2E7C0463E
:10105C009075FF1F9475FF1F9875FF1F02000020ED
:10106C0010B51A230B80FFF7DBFF014810BDC046FB
:10107C000000002010B50A00002805D105490648DB
:10108C0005F082FC034810BD0249034805F07CFCC6
:10109C00F8E7C046F00700204884000810B50A00A5
:1010AC00034C0448210005F06FFC200010BDC04625
:1010BC00F00700206084000810B50A00002805D154
:1010CC000549064805F060FC034810BD0249034879
:1010DC0005F05AFCF8E7C046F007002074840008BD
:1010EC0010B50A00002805D10549064805F04CFC4E
:1010FC00034810BD0249034805F046FCF8E7C0461A
:10110C00F007002080840008002070470020704702
:10111C000020704770B505000C00104B1E780A6853
:10112C00B3183F2B12D80E483018290006F065F979
:10113C0022680A4BB6181E700A4C2900200005F0D4
:10114C0003FF200005F031FF002070BD034B002190
:10115C0019700348290006F050F9EDE7340200201D
:10116C00380200201405002010B50649064C002258
:10117C00200005F0D7FE0549200005F0E5FE002013
:10118C0010BDC046F009002014050020F01100200D
:10119C0010B50A00094BAF218900595885239B00D3
:1011AC00CB58002B01D0012010BD044C01002000B5
:1011BC0005F0B8FE200005F0D6FEF5E7140500207A
:1011CC00022804D005D8002800D003207047012045
:1011DC00FCE70320FAE710B5FFF7BCF910BD0000DF
:1011EC0010B596B004004C22002103A806F088F834
:1011FC0022681E4B9A4201D016B010BD03A8802362
:10120C005B04039380239B01436403F0BBFA002827
:10121C0025D1174BDA6B802189010A43DA63DA6B2B
:10122C000A400192019ADB6BDB001BD4104CE36B80
:10123C00802252051343E363E36B13400293029B3A
:10124C0003F03CFEE36B0B4A1340E36300220021E6
:10125C00082003F097FE082003F098FECCE7FFF778
:10126C0077F9D6E703F02AFEF0E7C046005C0040B1
:10127C0000100240FFFFFFEF10B50100C1239B00DF
:10128C00C058403B9C46614404F0FAFD10BD10B5BB
:10129C000300C122920080588A005218D2009B1879
:1012AC009133FF331A6804F089FE10BD10B50300AA
:1012BC00C122920080588A005218D2009B181A6DD5
:1012CC0004F0EAFE10BD10B5C1239B00C05804F019
:1012DC005FFE10BD70B50400C368022B09D1C12597
:1012EC00AD006059012104F034FE605904F0F8FDA2
:1012FC0070BDFFF72DF9F2E710B50400C1239B0078
:10130C00C05804F029FE236A002B04D0024A13694A
:10131C0006210B43136110BD00ED00E010B5040075
:10132C00036A002B05D1C1239B00E05804F020FE7A
:10133C0010BD044A136906218B431361FFF74BFF61
:10134C00F1E7C04600ED00E070B504002048C12371
:10135C009B00C4503C3BE0501E4B03600823436091
:10136C008360063BC36083610023C36103624362F5
:10137C008362C3620363436300F0CAFE002823D177
:10138C00B225AD00605918230022002101F01CFE8B
:10139C00605958230022802101F016FE6059C023A9
:1013AC000022812101F010FE605988235B0000228D
:1013BC00012101F009FE605980235B00002282218B
:1013CC0001F002FE002070BDFFF7C2F8D8E7C0465E
:1013DC00101C0020005C004010B5B2239B00C058CC
:1013EC0000F00CFFFFF7ECFE10BD10B514001A0056
:1013FC00B2239B00C058230001F08AFCFFF7E0FEEB
:10140C0010BD10B5B2239B00C05801F0C6FCFFF70D
:10141C00D7FE10BD10B5B2239B00C05801F054FD8F
:10142C00FFF7CEFE10BD10B5B2239B00C05801F0E3
:10143C0088FDFFF7C5FE10BDB2239B00C3584AB20E
:10144C00002A09DB7F2211408A005218D2009B1817
:10145C007F33FF33187870477F2211408A0052186F
:10146C00D2009B183E331878F5E710B5B2239B00D9
:10147C00C05801F07FFBFFF7A3FE10BD10B5B224DE
:10148C00A400005901F0F9FCFFF79AFE10BD10B54D
:10149C00B224A400005901F0BAFCFFF791FE10BD74
:1014AC0010B5B2239B00C05801F0DDFC10BD00004C
:1014BC0010B5040000290FD0012915D1C1239B00C0
:1014CC00C05804F049FD236A002B0DD00B4A136958
:1014DC0006210B43136107E0036A002B05D1C123DE
:1014EC009B00E05804F044FD10BDFFF774FE034A66
:1014FC00136906218B431361F1E7C04600ED00E050
:10150C0000487047F01900207047000030B5036A9E
:10151C00012293430362056A42688369194C234094
:10152C000C681C4302239D438B682B43164DA84229
:10153C0008D0164DA84205D0154DA84202D0154D25
:10154C00A84206D10825AB431D00CB682B430425CC
:10155C00AB430D4DA84208D00C4DA84205D00C4D04
:10156C00A84202D00B4DA84205D10B4D2A404D6923
:10157C0015438A692A43426084614A684263036264
:10158C0030BDC0468CFFFEFF002C014000400140E6
:10159C000044014000480140FFFCFFFF30B5036AE6
:1015AC00184A13400362046A4268C369164D2B4003
:1015BC000D681D43154B1C408B681B022343144CB8
:1015CC00A04209D0134CA0420DD0134CA0420AD01B
:1015DC00124CA0420FD106E0114C1C40CB681B02F0
:1015EC002343104C2340104C22404C6924011443DB
:1015FC008A69120122434260C5614A68C263036270
:10160C0030BDC046FFFEFFFF8CFFFEFFFFFDFFFF5E
:10161C00002C0140004001400044014000480140C2
:10162C00FFF7FFFFFFFBFFFFFFCFFFFF30B5036AA4
:10163C00134A13400362046A4368C269114D2A407D
:10164C000D682D021543104A14408A681203224378
:10165C000E4CA04208D00E4CA04205D00D4CA0421E
:10166C0002D00D4CA04204D10C4C1C404B699B0188
:10167C0023434360C5614B680364026230BDC046BE
:10168C00FFEFFFFFFF8CFFFEFFDFFFFF002C014091
:10169C00004001400044014000480140FFBFFFFFF3
:1016AC0030B5036A124A13400362046A4368426D00
:1016BC00104D2A400D6815430F4A14408A681204D5
:1016CC0022430E4CA04208D00D4CA04205D00D4C2C
:1016DC00A04202D00C4CA04204D1054C1C404B69DA
:1016EC001B022343436045654B688365026230BD32
:1016FC00FFFFFEFF8FFFFEFFFFFFFDFF002C0140F1
:10170C0000400140004401400048014030B5036AEC
:10171C00134A13400362046A4368426D114D2A4018
:10172C000D682D021543104A14408A681205224395
:10173C000E4CA04208D00E4CA04205D00D4CA0423D
:10174C0002D00D4CA04204D10C4C1C404B699B02A6
:10175C002343436045654B68C365026230BDC04698
:10176C00FFFFEFFFFF8FFFFEFFFFDFFF002C0140AD
:10177C00004001400044014000480140FFFFFBFFD6
:10178C0030B5036A046A0125AC4304628469EF3501
:10179C00AC43120122430A24A3430B43826103622C
:1017AC0030BD000030B5036A1024A3430362846982
:1017BC00036A054D2C4012032243A024A3430901C4
:1017CC0019438261016230BDFF0FFFFF8368034A3A
:1017DC0013400B4307221343836070478FFFCFFFE7
:1017EC003D23C35C012B2CD13C330222C254026832
:1017FC00D36801210B43D3600368154A934212D07E
:10180C008022D20593420ED0124A93420BD0124A38
:10181C00934208D0114A934205D01A6801210A4319
:10182C001A6000200EE09A680D490A40062A0AD078
:10183C0007398A4209D01A6801210A431A6000202C
:10184C0000E0012070470020FCE70020FAE7C046CA
:10185C00002C014000040040000800400040014002
:10186C00070001007047704770477047704770471A
:10187C0010B50400026813699B070FD5D3689B074A
:10188C000CD503235B4213610433037703689B6914
:10189C009B076AD0FFF7E9FF0023237722681369BF
:1018AC005B0712D5D3685B070FD505235B42136129
:1018BC000733237723689A69C0239B001A425AD0B6
:1018CC002000FFF7D2FF00232377226813691B0740
:1018DC0010D5D3681B070DD509235B4213610D335B
:1018EC0023772368DB699B074CD02000FFF7BDFFF3
:1018FC000023237722681369DB0612D5D368DB0635
:10190C000FD511235B421361193323772368DA69EE
:10191C00C0239B001A423CD02000FFF7A6FF0023F7
:10192C00237722681369DB0702D5D368DB0737D42A
:10193C00226813691B0602D5D3681B0637D42268AC
:10194C001369DB0502D5D3681B0637D422681369EB
:10195C005B0602D5D3685B0636D4226813699B06F6
:10196C0002D5D3689B0636D410BDFFF77DFF20004F
:10197C00FFF77CFF90E72000FFF776FF2000FFF7D2
:10198C0075FFA0E72000FFF76FFF2000FFF76EFF49
:10199C00AEE72000FFF768FF2000FFF767FFBEE708
:1019AC0002235B4213612000FEF7C6FDC0E78123D2
:1019BC005B421361200000F0F2FAC0E7094B13619F
:1019CC00200000F0EDFAC1E741235B4213612000D7
:1019DC00FFF74DFFC1E721235B421361200000F0AC
:1019EC00DDFAC1E7FFFEFFFF0368244A904209D0ED
:1019FC008022D205904205D0214A904202D0214A41
:101A0C00904203D1702293434A6813431B4A90427D
:101A1C0015D08022D205904211D0194A90420ED096
:101A2C00184A90420BD0184A904208D0174A90425C
:101A3C0005D0174A904202D0164A904203D1164A5A
:101A4C001A40CB681343802293434A6913430360C3
:101A5C008B68C3620B688362084B984208D00B4BAF
:101A6C00984205D00A4B984202D00A4B984201D1B9
:101A7C000B690363012343617047C046002C01408E
:101A8C0000040040000800400020004000400140DD
:101A9C000044014000480140FFFCFFFF70B5041EEC
:101AAC002AD03D23C35C002B20D03D250223635557
:101ABC00210001C9FFF798FF01234822A3540A3AD9
:101ACC00A3540132A3540132A3540132A354013262
:101ADC00A3540132A3540132A3540132A354013252
:101AEC00A3540132A3546355002070BD3C33002233
:101AFC00C254FFF7E5F8D8E70120F6E770B5041EED
:101B0C002AD03D23C35C002B20D03D2502236355F6
:101B1C00210001C9FFF768FF01234822A3540A3AA8
:101B2C00A3540132A3540132A3540132A354013201
:101B3C00A3540132A3540132A3540132A3540132F1
:101B4C00A3540132A3546355002070BD3C330022D2
:101B5C00C254FFF787FED8E70120F6E770B5041EE4
:101B6C002AD03D23C35C002B20D03D250223635596
:101B7C00210001C9FFF738FF01234822A3540A3A78
:101B8C00A3540132A3540132A3540132A3540132A1
:101B9C00A3540132A3540132A3540132A354013291
:101BAC00A3540132A3546355002070BD3C33002272
:101BBC00C254FFF758FED8E70120F6E770B5036A68
:101BCC00102293430362026A44688369164D2B40CA
:101BDC000D682D021D4320239A438B681B01134370
:101BEC00124A904209D0124A90420ED0114A9042A9
:101BFC000BD0114A904210D107E0802293431E0073
:101C0C00CB681B013343403A93430C4A14404A6956
:101C1C00920022438C69A4001443446085614A6895
:101C2C008263036270BDC046FF8CFFFE002C014036
:101C3C00004001400044014000480140FFF3FFFF19
:101C4C0010B504003C23C35C012B2BD03C2301209A
:101C5C00E054142A21D89200134B9B589F462068BD
:101C6C00FFF754FC002019E02068FFF7A7FF0020C5
:101C7C0014E02068FFF792FC00200FE02068FFF7CB
:101C8C00D5FC00200AE02068FFF70AFD002005E0E3
:101C9C002068FFF73BFD002000E001203C230022E0
:101CAC00E25410BD0220FCE7C884000870B50400A3
:101CBC000D003C23C35C012B00D192E03C2301219D
:101CCC00C154142A00D987E09200474B9B589F4679
:101CDC0000682900FFF71AFC2268936908210B435E
:101CEC0093612268936904398B43936122689369E9
:101CFC0029690B43936100206FE000682900FFF70E
:101D0C005DFF2268916980231B010B43936122685C
:101D1C00936936490B40936121688B692A691202D9
:101D2C0013438B61002058E000682900FFF736FC54
:101D3C002268D36908210B43D3612268D369043923
:101D4C008B43D3612268D36929690B43D36100208B
:101D5C0043E000682900FFF769FC2268D169802301
:101D6C001B010B43D3612268D36920490B40D3611B
:101D7C002168CB692A6912021343CB6100202CE045
:101D8C0000682900FFF78CFC2268536D08210B4377
:101D9C0053652268536D04398B4353652268536D28
:101DAC0029690B435365002017E000682900FFF7F1
:101DBC00ADFC2268516D80231B010B4353652268D7
:101DCC00536D0A490B40536521684B6D2A69120209
:101DDC0013434B65002000E001203C230022E25419
:101DEC0070BD0220FCE7C0461C850008FFFBFFFF0E
:101DFC0030B58468034D2C401B0213430B43234323
:101E0C00836030BDFF00FFFF10B504000B003C22C7
:101E1C00825C012A00D177E03C22012181540132FD
:101E2C000131815401688A68384802408A60196817
:101E3C0060294FD023D8402957D011D8202904D05D
:101E4C000AD8002901D0102904D12068FFF7BEFC64
:101E5C0000202AE0012028E03029F6D0012024E0DF
:101E6C0050290AD15968DA682068FFF789FC206884
:101E7C005021FFF7ABFC002017E0012015E0802279
:101E8C00520191423CD080229201914214D070298F
:101E9C0038D199685A68DB682068FFF7A9FF226877
:101EAC00936877210B43936000203D230122E25479
:101EBC00013B0022E25410BD99685A68DB68206827
:101ECC00FFF796FF226891688023DB010B43936038
:101EDC000020EAE75968DA682068FFF763FC20689D
:101EEC006021FFF773FC0020DFE75968DA6820688F
:101EFC00FFF746FC20684021FFF768FC0020D4E780
:101F0C000020D2E70120D0E70220D4E78800CEFFE2
:101F1C0030B53C23C35C012B33D03C230122C2548B
:101F2C0001330132C254026853689568164CA242C0
:101F3C0022D07024A3430C68234353600368124AD5
:101F4C0093420CD08022D205934208D00F4A934280
:101F5C0005D00F4A934202D00E4A934204D18022FC
:101F6C0095438A682A439A603D230122C254013B5F
:101F7C000022C254002030BD074C23404C68234340
:101F8C00D7E70220F7E7C046002C014000040040D0
:101F9C000008004000400140FFFF0FFF70477047F2
:101FAC007047000082B00A23019302E0019B013BC1
:101FBC000193019B002BF9D1CB00044A9446634456
:101FCC005868000C8005800D02B0704700980040E6
:101FDC0082B00A23019302E0019B013B0193019B18
:101FEC00002BF9D1CB00044A944663441868000CCA
:101FFC008005800D02B070470098004082B00A2323
:10200C00019302E0019B013B0193019B002BF9D151
:10201C00CB00044A944663445868000C8005800D3C
:10202C0002B0704700980040F8B507000C0015008E
:10203C00530433D500680978FFF7CAFF0300060084
:10204C00A269824221D3121AA261A269002A0CD180
:10205C003A6821788900521811682948014080207B
:10206C00800148402749014311606D0609D53A6843
:10207C0021788900521810682349084023490143EC
:10208C001160002E04D13000F8BD0022A261DCE703
:10209C003868E288616901F067FFF4E70068097845
:1020AC00FFF7ACFF03000600A269824225D3121A87
:1020BC00A261A269002A0CD13A68217889005218D1
:1020CC0011680F4801408020800148400D490143B0
:1020DC0011606D0609D43A6821788900521810688D
:1020EC0009490840094901431160002ECBD03868DA
:1020FC002289616901F038FFC5E70022A261D8E7A7
:10210C008FBFFF07808000008F8FFF07C08000000B
:10211C0070B58AB0041E00D16CE0374BC35C002B49
:10212C0009D0354B0322E25400232361206800F0D0
:10213C0085FF00221BE0AF239B000022C254FFF757
:10214C004FF8EEE791008B18DB00E31818003D30D8
:10215C0001250570013802700C3002801D003F35DE
:10216C0000202870D864186558650132D2B26068B6
:10217C008242E7D3002119E08A005318DB00E318F0
:10218C001E007E36FF3600253570013E3170033659
:10219C0035700D3635609133FF331D605218D20007
:1021AC00A2189532FF3215600131C9B28842E3D8CA
:1021BC002068230010336A4662CB62C262CB62C2D3
:1021CC0062CB62C21B6813606168A268E36800F0AE
:1021DC004BFF38230022E254074B0132E254636A6E
:1021EC00012B02D000200AB070BD200000F00BFFC4
:1021FC000020F8E70120F6E7BD02000070B50400EE
:10220C00AF239B00C35C012B0DD0AF25AD00012388
:10221C004355006800F00AFF206801F0F3F9002331
:10222C006355002070BD0220FCE7000070B506006D
:10223C000C001500530600D409E100680978FFF77B
:10224C00C7FE0200A36983424BD91B1AA361A36981
:10225C00002B6BD16378002B46D12378DB00B94A75
:10226C00944663441A681204120C1A602378DB003B
:10227C0063441A68B4490A401A602378DB0063444B
:10228C001968802212060A431A606378002B3CD12D
:10229C002378DB00AB4A944663445A681204120C50
:1022AC005A602378DB0063445A68A7490A405A6095
:1022BC002378DB0063445968802212060A435A6073
:1022CC0021783000FEF7F2FF6D043FD53368227899
:1022DC0092009B1819689D4A11409D4A0A431A6046
:1022EC0034E00023A361B2E7012BCED12378DB00CD
:1022FC00944A944663441A681204120C1A602378A8
:10230C00DB0063441A681A60BFE7012BD8D123782D
:10231C00DB008C4A944663445A681204120C5A60CF
:10232C002378DB0063445A685A60C9E76D0409D509
:10233C003368217889005B181868844908408449FF
:10234C00014319602423E35C012B0DD03268237800
:10235C009B00D21813687F490B4030214B407E49BB
:10236C000B431360002070BD63699B186361E369C4
:10237C00D318E361216A2369994220D3C91A2162D7
:10238C006278002A49D12278D2006E498C46624488
:10239C0011680904090C11603E2B1CD95909DA0685
:1023AC0000D101392278D200664884466244106814
:1023BC008906084380210906014311602FE000299A
:1023CC0003D12423E1541300DAE700232422A3547D
:1023DC0023620B00D4E7002B11D12278D20059498B
:1023EC008C46624411685848014011602278D20032
:1023FC006244106880210906014311600FE05908FE
:10240C00DA0700D501312278D2004E488446624466
:10241C00106889060143116001E0012A06D030687A
:10242C009BB2E288616901F0F7F88FE72278D2005D
:10243C0044498C46624411680904090C11602278E5
:10244C00D20062441168180401431160E7E7006888
:10245C000978FFF7D3FD0200A36983424CD31B1A02
:10246C00A361A369002B79D16378002B47D1237822
:10247C00DB00344A944663441A681204120C1A6046
:10248C002378DB0063441A682F490A401A602378CA
:10249C00DB0063441968802212060A431A606378D1
:1024AC00002B3DD12378DB00264A944663445A68BE
:1024BC001204120C5A602378DB0063445A682249D8
:1024CC000A405A602378DB00634459688022120664
:1024DC000A435A6021783000FEF7E8FE6D0400D5FF
:1024EC0034E73368227892009B181968174A114018
:1024FC00174A0A431A6029E70023A361B1E7012BAD
:10250C00CDD12378DB000F4A944663441A68120439
:10251C00120C1A602378DB0063441A681A60BEE759
:10252C00012BD7D12378DB00064A944663445A68C2
:10253C001204120C5A602378DB0063445A685A6008
:10254C00C8E7C04600980040FFFFFF838F8FFF074E
:10255C0080C00000BF8FFF07808000006D0409D48D
:10256C003368217889005B1818683E4908403E4959
:10257C00014319602423E35C012B00D0E6E6636978
:10258C009B186361E369D318E361216A236999425B
:10259C0020D3C91A21626278002A49D12278D2004C
:1025AC0032498C46624451680904090C51603E2B37
:1025BC001CD95909DA0600D101392278D2002B48EE
:1025CC008446624450688906084380210906014309
:1025DC0051602FE0002903D12423E1541300DAE7E2
:1025EC00002323622422A3540B00D4E7002B11D127
:1025FC002278D2001D498C46624451681C48014027
:10260C0051602278D200624450688021090601434F
:10261C0051600FE05908DA0700D501312278D20059
:10262C00124884466244506889060143516001E0B7
:10263C00012A06D030689BB22289616900F0ECFF58
:10264C0084E62278D20009498C4662445168090418
:10265C00090C51602278D20062445168180401437D
:10266C005160E7E78F8FFF0780C0000000980040A3
:10267C00FFFFFF83F0B5D6464F464646C0B5040073
:10268C002068436C1B0400D46AE2436C0F221D00CB
:10269C001540134200D0B3E0DB0652D503681A058F
:1026AC007BD41B04ECD50368D04A1340802213431F
:1026BC0003602068BE235B00E15CFFF773FC030042
:1026CC0022007D32FF32D06100280FD051690029E1
:1026DC000CD020681500928801F046FC6B69EA6901
:1026EC009B186B6100212000FEF7D1FD23681B684D
:1026FC001A05C5D4C022920113409342C0D0BC4AE3
:10270C0053681B041B0C536023007D33FF331B6980
:10271C003E2B5ED95A09DB0600D1013AB4494B680D
:10272C0092061A4380231B0613434B6021680B68E7
:10273C00B04A1340C02292015A40AF4B13430B6076
:10274C009EE70268AD4B1A4080231B0213430360C3
:10275C003C23E35CDB00A64A944663441B681B0CD9
:10276C009B059B0DA365226DD318236500212000CA
:10277C00FEF79CFD3823E35C002B81D0636D002BAE
:10278C0000D07DE73822A35C2168802040420343BF
:10279C00DBB2CB640023A35472E7BE235B00E15C85
:1027AC00FFF700FC030022007D32FF32D06120686D
:1027BC00B12189006118928801F0D6FB2268136858
:1027CC008A490B4080210B4313602000FEF754FD17
:1027DC0056E7002B0AD1864B5A6889490A405A6041
:1027EC005968802212060A435A609FE75A08DB0791
:1027FC0000D501327E494B68920613434B6095E736
:10280C00AF00C0190668B3B29846330442D43306FD
:10281C0000D435E7AB005919C900383161180431BF
:10282C002268D2191068754F074080200002384387
:10283C0010605B19DB00E3183F331B78012B00D1D0
:10284C00E4E0F60500D586E1AB005B19DB00E3188C
:10285C001A003C321078C200654EB44662441268CD
:10286C00120C9205920D5E6D964200D85BE1AB00A6
:10287C005B19DB00E318B61A5E65AB005B19DB0075
:10288C00E3185B6D002B00D054E101002000FEF733
:10289C000DFDF5E60368554A13408022134303608F
:1028AC007A19D2007932FF32A218043291467B1980
:1028BC00DB00E3188733FF331B78002B33D0AB00DE
:1028CC005B19DB00E3188033FF331B78022B6CD0D1
:1028DC002268AB005B19DB00E3187D33FF331978FA
:1028EC008900521810684749084047490143116054
:1028FC00206819788B00C3181B685B045CD5FFF744
:10290C0067FB031E82461AD02068A9004919C9002A
:10291C0061180A008332FF3212889131FF31096845
:10292C0001F022FB0BE020687B19DB00E3187D3300
:10293C00FF331978FFF736FB031E824627D1AB0015
:10294C005B19DB00E31818009930FF300168524620
:10295C005144016008380168514401609533FF33DC
:10296C001B68002B08D0AB005B19DB00E3188D3320
:10297C00FF331B689A4233D2AB005B19DB00E318C0
:10298C007D33FF3319782000FEF781FC3FE7206888
:10299C007919C90061180A008132FF32128891310D
:1029AC00FF31096801F0E0FAC9E7424649462000C8
:1029BC00FFF73AFB8246C2E7FFF720FB031E824675
:1029CC00BDD02068A9004919C90061180A008532D8
:1029DC00FF3212889131FF31096801F0C5FAAEE778
:1029EC002068494600F046FE11E7C0468F0FFF07EE
:1029FC00009800408FBFFF07808000000F8FFF07FB
:102A0C00FFFFFF838F8FFF07C0800000AB005B19B7
:102A1C00DB00E31800225A6546331B78002B26D0C6
:102A2C00760644D5AB005B19DB00E3183D331B780D
:102A3C00002B26D1AB005B19DB00E3183C331A7872
:102A4C00D2004A498C46624411680904090C116091
:102A5C001A78D200624411684548014011601B7815
:102A6C00DB0063441968802212060A431A60AB002B
:102A7C005B19DB00E3183C3319782000FEF716FCD9
:102A8C00FEE5012BF3D1AB005B19DB00E3183C3303
:102A9C001A78D20035498C46624411680904090C35
:102AAC0011601B78DB0063441A681A60DFE7AB0027
:102ABC005B19DB00E3183D331B78002B1DD1AB00F9
:102ACC005B19DB00E3183C331A78D20027498C469B
:102ADC00624451680904090C51601A78D2006244AE
:102AEC0051682348014051601B78DB0063445968EE
:102AFC00802212060A435A60B9E7012BB7D1AB000A
:102B0C005B19DB00E3183C331A78D20017498C466A
:102B1C00624451680904090C51601B78DB00634462
:102B2C005A685A60A3E7AB005B19DB00E318002678
:102B3C005E65A2E6AB005819C0002018066DB618E9
:102B4C000665806D5B19DB00E31812189A65206826
:102B5C0000F090FD94E542462000FFF767FB8FE5FF
:102B6C000020E0BCBA46B146A846F0BD0098004033
:102B7C00FFFFFF8370B50400AF239B00C35C012BE8
:102B8C000CD0AF25AD00012343553733C154006839
:102B9C0000F032FD00236355002070BD0220FCE7DD
:102BAC0010B50400006800F034FD5049A0228A588A
:102BBC0052072ED5020416D4420518D4420423D44D
:102BCC00820427D4C2042BD402054AD402065BD457
:102BDC00820500D581E0C0051BD52268536C4449A1
:102BEC000B40536415E02000FFF744FD11E0226810
:102BFC00536C40490B4053642000FEF76BFB0021E3
:102C0C002000FFF7B7FF04E02268536C3A490B40F1
:102C1C00536410BD2268536C38490B405364F8E779
:102C2C002268136C04218B4313642268136C0431E7
:102C3C008B431364BD239B00E35C012B08D0200065
:102C4C00FEF76CFB2268536C2D490B405364E0E794
:102C5C00BD239B000022E25400212000FEF728FC3B
:102C6C00EDE72268136C08210B4313642268536C44
:102C7C0024490B4053642268136C04210B431364E6
:102C8C002000FEF739FBC4E72268536C1E490B4049
:102C9C005364BD239B00E35C002B1AD12268136C98
:102CAC0004210B4313642268136C04310B4313642B
:102CBC00BD239B000122E25423685A6D92083C23E9
:102CCC001340BE229200A35007392000FEF7F0FB00
:102CDC009FE72000FEF710FB9BE72268536C0B4923
:102CEC000B4053642000FEF7EEFA92E7000001401F
:102CFC00FFFE0000FFFB0000FFBF0000FFDF000035
:102D0C00FFEF0000FFF700007FFF0000FFFD000059
:102D1C00F8B505000E0049B200292ADB0727374019
:102D2C00BC00E119C9007931FF3141180431E419B3
:102D3C00E40004197E34FF3400202070072030405A
:102D4C0008700A61CB704A78002A00D08881022B67
:102D5C001ED0AF239B00EB5C012B1CD0AF24A40036
:102D6C0001232B55286800F095F900232B550020E2
:102D7C00F8BD07243440A0000119C9003831691886
:102D8C0004310019C00028183D3001240470D5E727
:102D9C000023CB72DDE70220EAE770B504000800DF
:102DAC004BB2002B22DB07250D40AB005919C90093
:102DBC007931FF31611804315B19DB00E3187E3384
:102DCC00FF3300221A70072303400B70AF239B00C4
:102DDC00E35C012B19D0AF25AD00012363552068AE
:102DEC0000F0F4FA00236355002070BD07220A405E
:102DFC0093009918C9003831611804319B18DB0015
:102E0C00E3183D3301221A70DDE70220EDE7F8B537
:102E1C0007260E40B400A119C9007931FF314118C1
:102E2C000431A519ED0045192F009137FF373A6091
:102E3C002A009532FF3213600432002313607E3572
:102E4C00FF352B70A419E40004197D34FF3426706F
:102E5C00002E04D1006800F00DFC0020F8BD0068C5
:102E6C0000F008FCF9E707230B409900C918C900CA
:102E7C0040189930FF3000687047F8B507260E40AF
:102E8C00B500A919C900383141180431AC19E40056
:102E9C000419226563652700603701223A70E365E7
:102EAC000023A3653D342270AD19ED0045193C3566
:102EBC002E70002E04D1006800F0DCFB0020F8BD61
:102ECC00006800F0D7FBF9E770B504000B00072091
:102EDC0008406268904230D84AB2002A20DB8A004F
:102EEC005118C9007931FF3161180431D218D20060
:102EFC00A2187E32FF320023137001238B700870EE
:102F0C00AF239B00E35C012B19D0AF25AD0001234F
:102F1C006355206800F004FB00236355002070BD4E
:102F2C0083001918C9003831611804311B18DB00F3
:102F3C00E3183D3301221A70DFE70120EFE702208E
:102F4C00EDE770B5040008000F230B406268934254
:102F5C0036D84BB2002B24DB07250D40AB0059199A
:102F6C00C9007931FF31611804315B19DB00E318BA
:102F7C007E33FF3300221A7000238B70073303401B
:102F8C000B70AF239B00E35C012B1BD0AF25AD0076
:102F9C0001236355206800F0E7FA002363550020F5
:102FAC0070BD07220A4093009918C9003831611886
:102FBC0004319B18DB00E3183D3301221A70DBE768
:102FCC000120EDE70220EBE710B50C060DD5072428
:102FDC000C40A1000919C900383140180430002AEE
:102FEC000BD182728380002010BD8C006118C90047
:102FFC007931FF3140180430F1E701228272C3802D
:10300C001B0C0381EFE710B503680121BF2292006E
:10301C008150083A002484545A6D0A435A655A6DFB
:10302C0001310A435A65002010BD0000002343649F
:10303C00014B03640020704780BF0000036C024A00
:10304C0013400364002070477F40FFFF002905D127
:10305C00036C5B005B08036400207047026C8023E8
:10306C001B0613430364F7E784B010B50400039107
:10307C000492059301220264036C934303640021C0
:10308C00FFF7E4FF00236364002010BC08BC04B00D
:10309C0018470000F0B503000C78A400041922684E
:1030AC00BF480240C878022856D00AD8002811D050
:1030BC00012804D18020C000024300200DE0012033
:1030CC000BE0032804D1C020C0000243002004E020
:1030DC00012002E08025AD002A43B24D2A43226034
:1030EC000C78A2009A181668AF4F3E403443254323
:1030FC0015608A7A002A00D0AFE04A78002A37D0CF
:10310C000A78D200A94CA44662441468240C240406
:10311C0014600A78D200624415688C88A408A40054
:10312C002C4314600A7892009A181468640604D52B
:10313C0015683D409E4C2C431460CA78012A0DD072
:10314C000A7892009B181A689A490A4020214A4032
:10315C0094490A431A60DDE00020BEE70A78920029
:10316C009B181968934A11408E4A0A431A60D1E0A1
:10317C000A78D2008D4CA44662445468240C240472
:10318C0054600A78D200624455688C88A408A40064
:10319C002C4354600A78D200624454682404240CF2
:1031AC0054600A693E2A2AD95409D20600D1013C3E
:1031BC000A78D2007D4DAC4662445568A40625437E
:1031CC00802424062C4354600A7892009A181468C0
:1031DC00640405D51568744C2540774C2C43146059
:1031EC000A78002A2DD192009A18136873490B4063
:1031FC00C021890159406B4B0B4313608AE0002AB4
:10320C0011D10A78D200694CA446624454686C4DC2
:10321C002C4054600A78D2006244556880242406FD
:10322C002C435460D0E75408D20700D501340A78F7
:10323C00D2005E4DAC4662445568A4062C435460E3
:10324C00C2E792009A1813685C490B4080218901EF
:10325C005940544B0B4313605CE0CA78022A5AD095
:10326C000A7892009A181568564C25404D4C2C4300
:10327C0014600A78D2004D4CA44662441468240CA5
:10328C00240414600A78D20062441568CC88A4081F
:10329C00A4002C4314600A78D20062445468240CB5
:1032AC00240454600A78D200624455680C89A4083E
:1032BC00A4002C4354604A78002A36D10A78920034
:1032CC009A181468640405D51568374C25403A4C97
:1032DC002C4314600A7892009A181468640605D579
:1032EC001568314C2540324C2C4314600A789200FE
:1032FC009A181568314C2540C024A4016C40294D06
:10330C002C4314600A7892009B181A6829490A40C9
:10331C0015431D60F0BD0A7892009A181568224C6E
:10332C002540294C2C431460A3E70A7892009A1884
:10333C001468640405D515681B4C25401E4C2C43A1
:10334C0014600A7892009A181468640605D51568FA
:10335C00154C2540164C2C431460CA78012A14D005
:10336C000A7892009A181468124D2C4020256C4053
:10337C000C4D2C4314600A7892009B1819680F4A64
:10338C001140084A0A431A60C4E70A7892009A1856
:10339C001568084C2540034C2C431460EBE7C046E1
:1033AC008F89FF07808000008F8FFF0700980040F7
:1033BC00C0800000BF8FFF0780C000008FBFFF07D9
:1033CC00FFFFFF838F8EFF078081000010B58B7A83
:1033DC00002B2FD14B78002B16D00B789B00C318E9
:1033EC001A68520605D51C68474A1440474A2243BE
:1033FC001A600B789B00C3181968454A1140454A5E
:10340C000A431A60002010BD0B789B00C3181A6881
:10341C00520405D51C683C4A14403F4A22431A60AA
:10342C000B789B00C31819683C4A1140394A0A436F
:10343C001A60E7E74B78002B32D10B789B00C3184E
:10344C001A68520405D51C682F4A1440324A22438C
:10345C001A600B789B00C3181A68520605D51C68B5
:10346C00294A1440294A22431A600B789B00C3183E
:10347C001C68254A1440254A22431A600B789B008D
:10348C00C3181A68254C2240224C22431A600B7830
:10349C009B00C3181A681E490A4014431C60B1E70C
:1034AC000B789B00C3181A68520405D51C68164A81
:1034BC001440194A22431A600B789B00C3181A68EF
:1034CC00520605D51C68104A1440104A22431A6053
:1034DC000B789B00C3181C680B4A14400E4A2243FD
:1034EC001A600B789B00C3181A68094C2240094CCF
:1034FC0022431A600B789B00C0180368074A1340DC
:10350C001C4304607EE7C0468F8FFF07C08000001D
:10351C00BF8FFF078080000080C000008FBFFF07B7
:10352C004B78002B0CD00B789B00C01803680B4A0F
:10353C001340102253400A4A134303600020704783
:10354C000B789B00C0180368064A13408022520176
:10355C005A40034B13430360F0E7C046BF8FFF078D
:10356C00808000008FBFFF0710B58B7A002B35D100
:10357C004B78002B1AD00B789B00C3181A68520694
:10358C0005D51C68164A1440164A22431A60CB789B
:10359C00012B23D00B789B00C3181A6812490A40E0
:1035AC0020214A4011490A431A6017E00B789B000E
:1035BC00C3181A68520405D51C68094A14400C4AF1
:1035CC0022431A600B789B00C0180368094A134009
:1035DC00C02292015A40054B13430360002010BDDA
:1035EC008F8FFF07C0800000BF8FFF078080000017
:1035FC0080C000008FBFFF07002901D18023C36466
:10360C0000207047826D80231B02134383650020CA
:10361C007047406C7047000070B5DC1CA408032098
:10362C0005001D40184200D0013C114B9C466244E1
:10363C000CE008784B781B0203438878000418438D
:10364C00CB781B06034308C20431013C002CF0D19B
:10365C00002D0BD020000B78C600B3401C4301306A
:10366C000131013DADB2002DF5D1146070BDC046E5
:10367C000098004070B505000C004B78012B34D03D
:10368C008A7A002A00D000E38B690A69934200D839
:10369C00D5E29B1A8B612378DB00CB498C466344C3
:1036AC0059680904090C59603E2A00D8CBE251092B
:1036BC00D20600D101392378DB00C34A9446634417
:1036CC005A6889061143802212060A435A602378ED
:1036DC009B00ED182B68BD4A1340C02292015A4042
:1036EC00BB4B13432B60002070BD8E690A69964258
:1036FC0000D91600A17A00292BD0E17802294BD0F1
:10370C00226A921B22622278910069180968490684
:10371C0000D43FE2002B00D026E2D200AA4B9C46FC
:10372C00624453681B041B0C53603E2E00D8F9E115
:10373C007209F30600D1013A2378DB00A2498C46CA
:10374C006344596892061143802212060A435A6058
:10375C0019E2B3B2A28861692800FFF75DFF2378F4
:10376C00DB00994A944663441A681204120C1A60DE
:10377C002278D2006244116836040E431660237816
:10378C009B00EB181A6893490A4030214A40904933
:10379C000A431A600020A7E7236A9A4200D3A1E1EA
:1037AC0023789B00EB1819688B4A11408B4A0A430B
:1037BC001A60236A9B1B236223789A00AA1812684A
:1037CC00520600D4BFE06278002A3CD1DB007E4A6E
:1037DC00944663445A681204120C5A603E2E10D957
:1037EC007209F30600D1013A2378DB0076498C4646
:1037FC006344596892061143802212060A435A60A8
:10380C0023E0002E11D12378DB006F4A94466344E9
:10381C005A6873490A405A602378DB00634459683C
:10382C00802212060A435A600FE07208F30700D593
:10383C0001322378DB0064498C4663445968920654
:10384C000A435A6001E0012A2DD02289B3B2616982
:10385C002800FFF7E1FE63699B196361236A226903
:10386C00934230D99B1B23626378002B51D1237870
:10387C00DB00554A944663441A681204120C1A6011
:10388C003E2E24D97209F30600D1013A2378DB00CD
:10389C004D498C46634419689206114380221206E6
:1038AC000A431A6037E0DB00474A944663445A687F
:1038BC001204120C5A602378DB0063445A683104FA
:1038CC000A435A60C1E7002222621E00CCE7002E98
:1038DC0011D12378DB003C4A944663441A68404972
:1038EC000A401A602378DB006344196880221206B0
:1038FC000A431A600FE07208F30700D501322378EF
:10390C00DB0031498C466344196892060A431A60FD
:10391C0001E0012B06D0E288B3B261692800FFF701
:10392C007BFE2CE72378DB00274A944663441A6815
:10393C001204120C1A602378DB0063441A683104F9
:10394C000A431A60E7E76278002A4BD1DB001E4A73
:10395C00944663441A681204120C1A603E2E10D955
:10396C007209F30600D1013A2378DB0016498C4624
:10397C006344196892061143802212060A431A60A6
:10398C0032E0002E11D12378DB000F4A94466344B9
:10399C001A6813490A401A602378DB0063441968DB
:1039AC00802212060A431A601EE07208F30700D543
:1039BC0001322378DB0004498C4663441968920673
:1039CC000A431A6010E0C046009800408FBFFF0702
:1039DC0080800000BF8FFF078F8FFF078081000062
:1039EC00FFFFFF83012A2DD0E288B3B26169280062
:1039FC00FFF712FE63699B196361236A2269934284
:103A0C0030D99B1B23626378002B51D12378DB00C8
:103A1C00C44A944663445A681204120C5A603E2EEF
:103A2C0024D97209F30600D1013A2378DB00BD4991
:103A3C008C466344596892061143802212060A434D
:103A4C005A6037E0DB00B74A944663441A681204A4
:103A5C00120C1A602378DB0063441A6831040A43A1
:103A6C001A60C1E7002222621E00CCE7002E11D1A1
:103A7C002378DB00AB4A944663445A68AA490A404F
:103A8C005A602378DB0063445968802212060A438B
:103A9C005A600FE07208F30700D501322378DB007F
:103AAC00A0498C466344596892060A435A6001E067
:103ABC00012B06D02289B3B261692800FFF7ACFD57
:103ACC005DE62378DB00974A944663445A681204F7
:103ADC00120C5A602378DB0063445A6831040A43A1
:103AEC005A60E7E722789200AA1810688F490840BC
:103AFC008F49014311602278D2008A498C46624476
:103B0C0011680904090C11602278D2006244116812
:103B1C00180401431160E2889BB261692800FFF729
:103B2C007BFD2CE6002E11D12378DB007D4A9446D8
:103B3C0063445A687C490A405A602378DB0063442A
:103B4C005968802212060A435A601CE07208F30777
:103B5C0000D501322378DB0072498C4663445968E6
:103B6C0092060A435A600EE0D2006E4B9C466244A9
:103B7C0053681B041B0C53602378DB0063445A68A6
:103B8C0031040A435A602289B3B261692800FFF7F5
:103B9C0043FDF4E5002B3CD1D200624B9C466244C1
:103BAC0013681B041B0C13603E2E10D97209F3060C
:103BBC0000D1013A2378DB005A498C4663441968DA
:103BCC0092061143802212060A431A6030E0002E3E
:103BDC0011D12378DB00534A944663441A68524946
:103BEC000A401A602378DB006344196880221206AD
:103BFC000A431A601CE07208F30700D501322378DF
:103C0C00DB0048498C466344196892060A431A60E3
:103C1C000EE0D200434B9C46624413681B041B0C01
:103C2C0013602378DB0063441A6831040A431A607A
:103C3C00E288B3B261692800FFF7EEFC9FE5002231
:103C4C008A611A0027E5002A11D12378DB00354A56
:103C5C00944663445A6834490A405A602378DB001E
:103C6C0063445968802212060A435A602FE55108B2
:103C7C00D20700D501312378DB002A4A94466344ED
:103C8C005A6889060A435A6021E5CA78022A51D03B
:103C9C00012A00D05AE189692269914200D8F5E0E5
:103CAC00891AA161002B1BD12378DB001D498C469E
:103CBC00634419680904090C19603E2A00D8E9E02C
:103CCC005109D30600D101392378DB00154884460D
:103CDC00634418688906084380210906014319606A
:103CEC006378002B00D01BE12378DB000D498C4658
:103CFC00634459680904090C59603E2A00D8EBE06A
:103D0C005109D20600D101392378DB00054A9446CB
:103D1C0063445A6889061143802212060A435A608A
:103D2C00D5E4C04600980040FFFFFF838F8EFF074D
:103D3C0080800000002B1BD10B78DB00854A944659
:103D4C0063441A681204120C1A600B693E2B2FD9AB
:103D5C005A09DB0600D1013A2378DB007D498C46F9
:103D6C006344196892061143802212060A431A60B2
:103D7C006378002B60D12378DB00764A9446634449
:103D8C005A681204120C5A6023693E2B32D95A0914
:103D9C00DB0600D1013A2378DB006E498C46634484
:103DAC00596892061143802212060A435A6045E074
:103DBC00002B11D10B78DB00664A944663441A68D9
:103DCC0065490A401A602378DB0063441968802235
:103DDC0012060A431A60CBE75A08DB0700D50132FA
:103DEC002378DB005B498C466344196892060A43CE
:103DFC001A60BDE7002B11D12378DB00554A94469D
:103E0C0063445A6854490A405A602378DB0063447F
:103E1C005968802212060A435A600FE05A08DB07E1
:103E2C0000D501322378DB004A498C46634459683B
:103E3C0092060A435A6001E0012B15D0E369002B6E
:103E4C0000D144E423789B00EB181A6843490A40DC
:103E5C008A4202D0002A00D039E41968404A114045
:103E6C00404A0A431A6032E42378DB00394A94460C
:103E7C0063445A681204120C5A602378DB006344C2
:103E8C005A68216909040A435A60D7E70022A261E3
:103E9C000A0007E7002A11D12378DB002D498C4654
:103EAC00634419682C48014019602378DB00634493
:103EBC001868802109060143196011E75108D307DE
:103ECC0000D501312378DB0022488446634418680E
:103EDC0089060143196003E7002A12D12378DB001D
:103EEC001C4A944663445A681B490A405A6023781A
:103EFC00DB0063445968802212060A435A60FFF7BC
:103F0C00E6FB5108D20700D501312378DB00114ABA
:103F1C00944663445A6889060A435A60FFF7D7FBF4
:103F2C00012B01D0FFF7D3FB2378DB0009498C462A
:103F3C00634459680904090C59602378DB00634415
:103F4C00596812040A435A60FFF7C1FB0120FFF7BE
:103F5C00CBFBC04600980040FFFFFF8340400000B1
:103F6C008F8FFF07C080000070B5D81C8008032518
:103F7C002C001C40114EB44662441D420BD001383B
:103F8C0009E008CA0B701D0A4D701D0C8D701B0EBC
:103F9C00CB70043101380028F3D1002C0CD01268FE
:103FAC00FF230340DB001500DD400D7001300131B3
:103FBC00013CA4B2002CF3D170BDC0460098004067
:103FCC0070B582B0041E00D15EE20368DB0739D500
:103FDC00C14A916838230B40D16803220A40102B48
:103FEC0026D0082B26D063688022520293427FD0C1
:103FFC00A022D202934200D181E0B74B1A68B74994
:10400C000A401A601A68B6490A401A606368002BA5
:10401C0000D180E000F0E6FF0500AF4B1B689B036E
:10402C0010D400F0DFFF401B6428F6D903202CE2EB
:10403C00032AD6D1A84B1B689B0303D56368002BBE
:10404C0000D124E223689B0731D5A34A9168382319
:10405C000B40D16803220A40102B6AD0002B6BD185
:10406C009D4A1268520503D5E268002A00D110E27D
:10407C00994842689B490A40616909020A434260B7
:10408C00002B0DD1036898490B4021690B43036049
:10409C000368DB0A07221A40944BD340944A1360FE
:1040AC00944B1868FCF718FF002800D0F3E1236844
:1040BC001B0700D481E0884B9A6838231340182BD7
:1040CC0073D0A369002B00D1B4E0834A136E012195
:1040DC000B43136600F086FF05007F4B1B6E9B079E
:1040EC006BD400F07FFF401B0228F6D90320CCE1F3
:1040FC00794A116880235B020B43136086E7764B89
:10410C0019688022D2020A431A601968802252026E
:10411C000A431A607AE700F065FF05006E4B1B68D6
:10412C009B038FD500F05EFF401B6428F6D903205B
:10413C00ABE1022A92D193E7E368002B22D0664AC6
:10414C00136869490B4021690B4313601168802384
:10415C005B000B43136000F045FF05005E4B1B68D2
:10416C005B0506D400F03EFF401B0228F6D9032065
:10417C008BE159494B685B4A134062691202134345
:10418C004B6094E7544A13685B490B40136000F092
:10419C0029FF0500504B1B685B0588D500F022FFFA
:1041AC00401B0228F6D903206FE14B4B1B6E9B077B
:1041BC0003D5A369002B00D16FE123685B0700D402
:1041CC00A2E0454B9A6838231340202B45D0424B34
:1041DC00DB6BDB004AD4404BDA6B802149050A4388
:1041EC00DA63DB6B0B400193019B0125434B1B688E
:1041FC00DB053DD5A368012B4ED0052B52D0364B99
:10420C00DA6D01218A43DA65DA6D03318A43DA65A6
:10421C00A368002B50D000F0E5FE06002E4BDB6DA2
:10422C009B076FD400F0DEFE801B354B9842F5D90E
:10423C0003202AE1284A136E01218B43136600F0F8
:10424C00D1FE0500244B1B6E9B07B6D500F0CAFEB1
:10425C00401B0228F6D9032017E11F4BDB6D9B078F
:10426C0052D5A368002B4FD101200EE10025BDE7EC
:10427C00224A116880235B000B43136000F0B2FEEE
:10428C0006001E4B1B68DB05B4D400F0ABFE801B94
:10429C000228F6D90320F8E00F4AD36D01210B4315
:1042AC00D365B5E70C4BDA6D04210A43DA65DA6D98
:1042BC0003390A43DA65ABE700F094FE0600064BBF
:1042CC00DB6D9B071ED500F08DFE801B0C4B9842BE
:1042DC00F5D90320D9E0C04600100240FFFFFEFFD5
:1042EC00FFFFFBFFFF80FFFFFFC7FFFF0024F40071
:1042FC00700000206C000020FFFEFFFF00700040EB
:10430C0088130000012D19D023689B062FD5E36973
:10431C00002B19D06A4A11688023DB030B4313600E
:10432C0000F060FE0500664B1B681B021FD400F0FA
:10433C0059FE401B0228F6D90320A6E0604AD36B35
:10434C0060490B40D363DFE75D4A13685E490B405D
:10435C00136000F047FE0500594B1B681B0206D585
:10436C0000F040FE401B0228F6D903208DE0236AA2
:10437C00002B00D193E0524A916838220A40102A4F
:10438C005AD0022B12D04E4A136850490B4013607E
:10439C0000F028FE04004A4B1B689B0145D500F039
:1043AC0021FE001B0228F6D903206EE0444A136854
:1043BC0046490B40136000F015FE0500404B1B688E
:1043CC009B0106D500F00EFE401B0228F6D90320F7
:1043DC005BE03B4AD3683E491940636AA06A0343D9
:1043EC00E06A00020343206B0343606B0343A06B42
:1043FC0003430B43D360116880235B040B431360AE
:10440C00D16880235B050B43D36000F0EBFD040007
:10441C002B4B1B689B0106D400F0E4FD001B02280B
:10442C00F6D9032031E000202FE0254AD368294932
:10443C000B40D360002028E0012B32D0204BDA68EF
:10444C0003231340616A8B422DD170231340A16A60
:10445C008B422AD1FE21C9011140E36A1B02994209
:10446C0025D1F8239B031340216B8B4221D1E023F0
:10447C001B051340616B8B421DD1520F5207A36B6E
:10448C009A421AD1002000E0012002B070BD012038
:10449C00FBE70120F9E70120F7E70120F5E7002011
:1044AC00F3E70120F1E70120EFE70120EDE7012020
:1044BC00EBE70120E9E70120E7E70120E5E7C0464B
:1044CC0000100240FFFFFFEFFFFFBFFFFFFFFFFEEB
:1044DC008C80C111FCFFFEEE10B52A4B9B68382274
:1044EC001A4207D1274B1A68D20A072313402648D1
:1044FC00D84010BD234B9A6838231340082B3BD06F
:10450C00204B9A6838231340102B0DD01D4B9A6802
:10451C0038231340202B31D01A4B9A683823134080
:10452C00182B26D00020E4E7164AD1680D3B0B402F
:10453C00D2681209072111400131032B0FD0124808
:10454C00FBF7C8FD0F4BDA68120A7F231340584360
:10455C000C4BD968490F0131FBF7BCFDC9E70B487F
:10456C00FBF7B8FD074BDA68120A7F231340584358
:10457C00EEE7FA20C001BCE70448BAE7802000024D
:10458C00B7E7C046001002400024F40000127A0085
:10459C0070B504000D00002800D1AAE0574B1A6832
:1045AC00072313408B4221D323689A070ED55B0750
:1045BC0005D5534A9168E023DB010B439360504AC5
:1045CC00936850490B40A1680B4393602368DB0749
:1045DC0054D56368012B20D0022B3BD0002B3FD14C
:1045EC00474A126852051CD401206AE0434A1368FA
:1045FC0007218B432B43136000F0F4FC06003F4B68
:10460C001A6807231340AB42CED000F0EBFC801BA2
:10461C003D4A9042F3D9032053E0394A1268920381
:10462C0069D537498A680720824313438B6000F0B1
:10463C00D9FC0600324B9B6838221A406368DB00B9
:10464C009A421BD000F0CEFC801B2F4B9842F1D924
:10465C00032036E02A4A12689201E2D4012030E0AD
:10466C00032B05D0264AD26D9207DAD4012028E01C
:10467C00234A126E9207D4D4012022E01F4B1A68F1
:10468C0007231340AB421DD823685B0706D51C4A91
:10469C0093681E490B40E1680B439360FFF71CFFC6
:1046AC00174B9A68120A0F231340194A9B009A5809
:1046BC001F231340D840174B1860174B1868FCF792
:1046CC000BFC70BD0D4A136807218B432B43136001
:1046DC0000F088FC0600094B1A6807231340AB4214
:1046EC00D2D000F07FFC801B074B9842F3D90320FB
:1046FC00E7E70120E5E70120E3E7C04600200240A0
:10470C0000100240FFF0FFFF88130000FF8FFFFF37
:10471C00A0850008700000206C000020014B186878
:10472C007047C0467000002010B5FFF7F7FF064B2E
:10473C009A68120B07231340044A9B009A581F23B4
:10474C001340D84010BDC0460010024080850008C0
:10475C0030B507230360094A94681C404460946890
:10476C00F0252D012C4084609268E024E401224065
:10477C00C260034A126813400B6030BD0010024047
:10478C0000200240F0B583B0040003689B0362D59F
:10479C00AE4BDB6BDB001ED4AC4BDA6B80214905D6
:1047AC000A43DA63DB6B0B400193019B0126A84A99
:1047BC00116880235B000B43136000F013FC0500B1
:1047CC00A34B1B68DB0508D400F00CFC401B022833
:1047DC00F6D9032502E00026E9E70025002D23D1B8
:1047EC009A4BD96DC02292000B001340114212D08B
:1047FC00226C9A420DD0954AD36D96490B40D06DE0
:10480C00802149020143D165D16D93480140D165A6
:10481C00D365DB0710D4002D06D18C4AD36D8D499E
:10482C000B40216C0B43D365012E15D1874AD36BFA
:10483C008A490B40D3630FE000F0D4FB0700834B95
:10484C00DB6D9B07E7D400F0CDFBC01B844B98427B
:10485C00F5D90325DFE700252368DB0706D57B4A5E
:10486C00536D03218B4361680B43536523689B078E
:10487C0006D5764A536D0C218B43A1680B435365C7
:10488C0023685B0706D5714A536D30218B43E16871
:10489C000B4353652368DB0606D56C4A536D71498F
:1048AC000B4021690B4353652368DB0406D5674A2B
:1048BC00536D68490B4061690B43536523689B0535
:1048CC0006D5624A536D68490B40A16A0B43536588
:1048DC0023685B0506D55D4A536D64490B40E16A5C
:1048EC000B43536523689B0606D5584A536D6049A4
:1048FC000B40A1690B43536523685B0606D5534AED
:10490C00536D5C490B40E1690B43536523685B04B1
:10491C000BD54E4A536D9B009B08216B0B43536583
:10492C00226B8023DB059A4262D023681B0306D5D9
:10493C00464A536D40218B43616B0B43536523688F
:10494C009B020BD5414A536D4B490B40A16B0B435A
:10495C005365A26B8023DB039A4250D023685B0221
:10496C000BD53A4A536D45490B40E16B0B435365EC
:10497C00E26B80235B049A4248D023681B0509D55F
:10498C00324A936D03218B43216A0B439365236A4F
:10499C00012B40D023689B0409D52C4A936D0C2124
:1049AC008B43616A0B439365636A042B39D023688C
:1049BC00DB010BD5254A936D2D490B40616C0B43E4
:1049CC009365626C80239B019A4230D023689B01D3
:1049DC000BD51E4A936D1F490B40A16C0B4393657D
:1049EC00A26C80235B009A4228D0280003B0F0BD53
:1049FC00164AD16880235B020B43D36095E7134AB8
:104A0C00D16880235B040B43D360A7E70F4AD168BE
:104A1C000B43D360B1E7D16880235B020B43D360B7
:104A2C00B8E7D16880235B020B43D360BFE7074A2A
:104A3C00D16880235B040B43D360C7E7034AD1687A
:104A4C0080235B040B43D360CFE7C04600100240C9
:104A5C0000700040FFFCFFFFFFFFFEFFFFFFFFEFBA
:104A6C0088130000FFF3FFFFFFFFF3FFFFFFCFFFF3
:104A7C00FFCFFFFFFF3FFFFFFFFFBFFFFFFFFFFE6B
:104A8C00104BD96A802252020A43DA62DA6A0E4962
:104A9C000A40DA6203684268134382681343C268AF
:104AAC001343026912041A43084B5A601A680849E6
:104ABC000A40416909020A431A601A6860210A43D4
:104ACC001A60704700100240FFFFFEFF006C0040B0
:104ADC00FF80FFFFF0B5002359E086685F000324D8
:104AEC00BC40A643CC68BC403443846044689443C7
:104AFC004E683609012232409A402243426056E009
:104B0C00DE080836B600375805321A4092000F24DA
:104B1C009440A7430C69944022003A43325059E028
:104B2C00042600E00026A64034003C43444E1832D4
:104B3C00920094513768EA433E00AE434C68E4025D
:104B4C0001D53E002E433E4C266067683E00164061
:104B5C004C68A40201D53E002E43394C6660842675
:104B6C00A7593E0016404C68A40301D53E002E43C5
:104B7C00334C8427E6518026A65932404C68E40316
:104B8C0001D52A0032432E4D80242A5101330C6862
:104B9C002200DA4053D001229A40250015401442DD
:104BAC00F4D04E6803243440013C012C95D94C6858
:104BBC0003222240032A08D0C4685E000322B240BC
:104BCC0094438A68B2402243C2604C68032222405C
:104BDC00022A95D004685E0003221700B740BC433C
:104BEC004F683A40B240224302604C68C0229202A5
:104BFC001442CBD09A0814001834A400104EA759B4
:104C0C0003241C40E4000F26A640B743A026F6055B
:104C1C00B04287D00B4EB0420BD00B4EB0420AD0F4
:104C2C000A4EB04209D00A4EB04200D178E70526B0
:104C3C0079E7012677E7022675E7032673E7F0BDCF
:104C4C00001802400004005000080050000C0050F6
:104C5C0000100050002A01D0816170478162FCE78E
:104C6C00426913000B401B0491430B438361704753
:104C7C0010B504000268144B9A4215D8436C9B087B
:104C8C009B0012498C4663448364FF201040083813
:104C9C001421FBF71FFA03000D4AE2641F20184091
:104CAC0001238340236510BD436C9B089B0009497D
:104CBC008C4663448364FF20104008381421FBF7B2
:104CCC0009FAC31DE8E7C046070402400008024089
:104CDC00800802401C08024042687F231340064AA9
:104CEC009A1892004265054A8265013B03221A40DC
:104CFC0001239340C36570473F8200104009024076
:104D0C0070B5041E5CD005682E4B9D4241D8142111
:104D1C002D4BE818FBF7DEF9800060642B4B236405
:104D2C0025230222E2542B68294A13402B60216868
:104D3C000A68A368E068034320690343606903437E
:104D4C00A0690343E0690343206A034313430B60E8
:104D5C002000FFF78DFFA2688023DB019A4222D04E
:104D6C006168A26C7F230B401360E36C226D5A6068
:104D7C006368013B032B19D900236365A365E365C5
:104D8C000023E36325220121A154013AA3540020FE
:104D9C0070BD14210F4BE818FBF79CF98000606480
:104DAC000D4B2364BCE700236360D9E72000FFF7B9
:104DBC0093FF636D00221A60A36DE26D5A60DFE70A
:104DCC000120E5E707040240F8FFFDBF00000240A8
:104DDC000F80FFFFF8FBFDBF0004024070B5036CB1
:104DEC00196804682568426C1C23134004229A40FD
:104DFC00114214D06A0712D523689B0603D423688A
:104E0C00042293432360436C1C221A40016C04233C
:104E1C0093404B60036B002B00D0984770BD02226F
:104E2C009A40114226D0AA0724D523689B0606D4A3
:104E3C0023680A22934323602523093AC25402684B
:104E4C001B4B9A420ED9436C1C221A4002239340EE
:104E5C00184A536024230022C254C36A002BDDD0AD
:104E6C009847DBE7436C1C221A4002239340124AFA
:104E7C005360EFE708229A401142CFD02D07CDD5D1
:104E8C0023680E2293432360436C0E321A40016C4C
:104E9C0001231C0094404C60C363252283542333AC
:104EAC000022C254436B002BB8D09847B6E7C046DB
:104EBC00800002400004024000000240034A516896
:104ECC008023DB000B4353607047C04600700040EA
:104EDC0010B5104A136810490B400343136080232C
:104EEC009B00984201D0002010BD0C4B1B68580051
:104EFC00C01840000A49FBF7EDF80130054B5B691F
:104F0C005B0503D5002803D00138F7E70020EBE759
:104F1C000320E9E700700040FFF9FFFF700000205C
:104F2C0040420F0070B5002811DB8308134DC033CD
:104F3C009B005C5903221040C000FC3216008640D6
:104F4C00B44389010A40824022435A5170BD0F2359
:104F5C000340083B9B0806339B00094A9446634474
:104F6C005C6803221040C000FC3215008540AC4345
:104F7C0089010A40824022435A60E7E700E100E0E1
:104F8C0000ED00E010B5FFF7CDFF10BD002805DBEC
:104F9C001F22024001239340014A13607047C04610
:104FAC0000E100E010B5084A116880235B000B4358
:104FBC0013600320FBF790FF041E02D00124200095
:104FCC0010BDFBF76DFFFAE700200240034B1B7886
:104FDC00034A11685B1813607047C04668000020D4
:104FEC00181F0020014B18687047C046181F00207E
:104FFC0070B50400FFF7F6FF0500631C02D0044BEC
:10500C001B78E418FFF7EEFF401BA042FAD370BDEB
:10501C0068000020034A136803490B4003431360E4
:10502C007047C04600000140FFF9FFFF30B583B068
:10503C00040000230193002800D106E1836D002BAE
:10504C0013D023689A68D2001CD49968804A114006
:10505C00802252050A439A607E4B18687E49FBF702
:10506C0039F801304000019009E0FBF771FC002396
:10507C00E3655422A354E4E7019B013B0193019B9C
:10508C00002BF9D123689A68D20000D59DE0A26D5F
:10509C0010210A43A265E26D0F390A43E265012033
:1050AC009A6804210D001540114200D00125A26D13
:1050BC00D20600D5C2E0002D00D0BFE0A26D67493A
:1050CC000A400631FF310A43A2659A68D20752D4CE
:1050DC00A268217E89030A43617EC9030A43A57E27
:1050EC0069030A43216B002901D0802149010A433D
:1050FC00E1680A432169002969DB802189030A439D
:10510C002C21615C49000A432021615C012961D09A
:10511C00616A002905D0E0256D002940A56A294364
:10512C000A43D9684E4D29400A43DA6063689B0FE5
:10513C009B07E26C1A433C21615C012959D0216820
:10514C000B69484D2B4013430B616368C022120658
:10515C00934210D08022D20593420CD080221206AA
:10516C00934208D040490A68404D2A40F025AD03CF
:10517C002B4013430B602168636B4A690725AA43D4
:10518C0013434B612168A26B4B696935AB43120128
:10519C0013434B612369002B35D12268916A103B74
:1051AC000B43936223685A6907231340626B9A423C
:1051BC003BD0A36D12229343023A1343A365E36DD4
:1051CC000F3A1343E36501203DE0002068E74900F6
:1051DC00490894E7002D03D1802149020A4397E73F
:1051EC00A16D20252943A165E16D1F3D2943E16592
:1051FC008EE7216C0B43616C0B43A16C0B43134387
:10520C0001221A439BE7802292039342CAD1216860
:10521C008B6AE369013B9B001C221A4010235B4202
:10522C009340226E13438B62BCE70023E365A36DAE
:10523C0003229343023A1343A36504E0A36D1022A7
:10524C001343A365012003B030BD0120FBE7C0462A
:10525C00E8FFFF6F70000020400D0300FDFEFFFF14
:10526C000102FEFF02FCFF1F08270140FFFFC3FFE6
:10527C00F0B583B004000023019305695433C35C7B
:10528C00012B00D12FE154230122C2540068836802
:10529C00033216001E401A4209D0A36D1C32134370
:1052AC00A365012054230022E25403B0F0BD4B68E7
:1052BC00022B00D1D5E080221206954225D08B4AD4
:1052CC00954222D0226E1F271F400F25BD40AA43B6
:1052DC000B685D032FD19B0E1F261E40BE40324330
:1052EC0022664D68AB080133E269934213D80E680D
:1052FC00826A1F231D40103B1F00AF40BA43B60EFD
:10530C003340AB401343836205E00B68826A5B0356
:10531C005B0B1343836220680B688D6842691B0228
:10532C009A432B40724D2B40134343610B68002B67
:10533C004FDB0020B6E7DD07D0D49D0727D45D07EF
:10534C0027D41D0727D4DD0627D49D0627D45D0658
:10535C0027D41D0627D4DD0527D49D0527D45D054C
:10536C0027D41D0527D4DD0427D49D0427D45D0440
:10537C0027D41D0427D4DD0327D49D0327D48025EF
:10538C00ED021E002E402B42A8D01226A6E70126C5
:10539C00A4E70226A2E70326A0E704269EE705263B
:1053AC009CE706269AE7072698E7082696E709263B
:1053BC0094E70A2692E70B2690E70C268EE70D263B
:1053CC008CE70E268AE70F2688E7102686E711263B
:1053DC0084E7484A1168E02252040A404648834256
:1053EC0007D04648834222D0454883422CD0002027
:1053FC0058E70802F5D480231B0413433D490A687F
:10540C004048024013430B603F4B18683F49FAF782
:10541C0061FE013043001B189B00019302E0019BCD
:10542C00013B0193019B002BF9D100203AE7C80105
:10543C00DAD480235B0413432E490A6831480240B6
:10544C0013430B6000202DE749024AD48023DB0371
:10545C00134328490A682B48024013430B60002071
:10546C0020E780231B069D4202D0204B9D4205D194
:10547C000B68826A5B035B0B9A4382620B68002B9E
:10548C0001DB00200EE71B4A12681B498B4207D038
:10549C001A498B420FD01A498B4217D0002001E7D2
:1054AC00A0235B041A4013490B68164803401A43A7
:1054BC000A600020F6E6C0231B041A400D490B6855
:1054CC00104803401A430A600020EBE6C0235B043B
:1054DC001A4008490B680B4803401A430A60002025
:1054EC00E0E60020DEE60220DFE6C0460400008095
:1054FC0000FFFF0708270140001000B0004000B873
:10550C00002000B4FFFF3FFE70000020400D0300A0
:10551C0030B50468184B9C4223D018490164802292
:10552C00A358174D2B40456B2D042B43A3500B0058
:10553C00703343640568AB58124C2340846B2406CB
:10554C002343AB500B00B0338364D833C36498232C
:10555C009B00CB1803659E239B00CB1843650B0067
:10556C0003E00949DAE7002204C3D42292008A1826
:10557C009A42F8D830BDC0460068004000B40040E4
:10558C00FFFFE0FFFFFFFFF050B70040F0B51F003A
:10559C004B68002B19D10D698B681D430B689B045C
:1055AC001D430C6A2406CB691C438B691C434B6955
:1055BC001C43CB681C43466DFB00DB19DB00F61863
:1055CC00356074600836002015E00B698C68234345
:1055DC000C6823438025ED051D43E2E71418E3789E
:1055EC001B06A5782D042B43647824022343145CFA
:1055FC00234308C60430CB89024CE35C8342EDD8CC
:10560C00F0BDC0467085000870B5041E00D1E1E005
:10561C005C23C35C002B19D02268936910218B4347
:10562C009361FFF7DFFC0500226893691B0713D514
:10563C00FFF7D8FC401B0A28F6D9236E012213432E
:10564C0023665C230232E254012070BD5D330022DC
:10565C00C254FBF72FFADFE7936901210B439361E7
:10566C00FFF7C0FC050022689369DB070DD4FFF738
:10567C00B9FC401B0A28F6D9236E0122134323667A
:10568C005C230232E2540120DFE7936902210B43D1
:10569C0093612268504B9A4243D0237C012B44D017
:1056AC002268936940210B439361637C012B42D0A8
:1056BC002268936949490B409361A37C012B41D02B
:1056CC002268916980235B010B4393612268936983
:1056DC0043490B40A1680B43936122689369A42151
:1056EC008B4393612268136994398B431361E3688C
:1056FC00012B2DD0002B30D0022B54D02268936973
:10570C0080210B4393612268136970390B43136139
:10571C00E368032B21D12268936910310B43936109
:10572C001BE062682F4B1A60B7E72268936940212F
:10573C008B439361B9E7226891698023DB010B43AA
:10574C009361BAE72268936927490B409361BDE7DF
:10575C00226893690C390B439361A369013B5B0687
:10576C00E269013A12021343226A013A1343626955
:10577C00013A120421681343CB61A268C0239B0039
:10578C009A4216D02168C0228B58E06B03438B5091
:10579C002000FFF7BDFE0023A36523665C330122C6
:1057AC00E254002051E72268936920210B43936156
:1057BC00D3E7A36A013BE26A013A12021343226B5C
:1057CC00013A12011343626A013A1204216813432D
:1057DC00CB60D7E7012038E700640040FFBFFFFF34
:1057EC00FFFCFFFF00650040FFEFFFFF5C23C35C85
:1057FC00012B05D0036E042213430366012070476E
:10580C005B330222C2540268936901218B4393617A
:10581C00002303660020F2E770B504005C23C35C30
:10582C00022B1CD10068C233C3589B0206D5226ED2
:10583C0080239B0013432366012015E0C423C35827
:10584C001B0C03251D402B002000FFF79FFE216839
:10585C000123AB40CC228B50A365002004E0036EE7
:10586C00082213430366012070BD0000F0B55C24D0
:10587C00045D022C7DD140290BD0056898242C594D
:10588C0024071FD1026E80235B00134303660120A3
:10589C0074E005688E342C59240706D1026E8023DF
:1058AC005B0013430366012068E090242C59240A02
:1058BC0003252540AC46856C6446E4006444E40052
:1058CC002D190BE098242C59240A03252540AC46AD
:1058DC00C56C6446E4006444E4002D192C688026F1
:1058EC00F6053440546029D12C68A40C6405640D71
:1058FC0014602C688026B605344094602C68E40F44
:10590C00E40714616C682404240CD4616C68F026E0
:10591C0036033440D4606C6880267603344054617E
:10592C006C688026B60334409461EE797F24344051
:10593C0014626C68E40F5462002408E02C68E400E4
:10594C00E4081460D5E72E19367A1E550134D68931
:10595C000B4FBE5DA642F6D8402905D002689C23A9
:10596C006146D150002009E0026894236146D15071
:10597C00F8E7036E0822134303660120F0BDC0460E
:10598C0070850008F0B55C23C35C013BDBB2012BD6
:10599C0005D9036E0222134303660120F0BD04688F
:1059AC00A36D07252E000E400D4201D0DD0722D538
:1059BC0038250D4201D09D071DD5E0256D002942EB
:1059CC0001D05D0717D5F0256D01294201D01D07C7
:1059DC0011D5E0252D02294201D0DD060BD5C025BD
:1059EC00AD02294201D09D0605D5FC252D04294286
:1059FC0005D05D0603D4E56D01273D43E565002E1A
:105A0C0001D0DC0722D438240C4201D09C071DD4D1
:105A1C00E0246400214201D05C0717D4F024640117
:105A2C00214201D01C0711D4E0242402214201D0D0
:105A3C00DC060BD4C024A402214201D09C0605D460
:105A4C00FC242404214206D05B0604D50468E36DD3
:105A5C0002252B43E3650B0604D50568DC242B5982
:105A6C0013432B51CB0504D50568E0242B59134364
:105A7C002B510268536D0B43536500208EE7704722
:105A8C007047704770477047704770477047F8B55C
:105A9C00DE4657464E464546E0B5040003681A6D8F
:105AAC00E02149010A40596D11408B46196D0722BE
:105ABC000A40596D11408A46196D38220A40596DB9
:105ACC00114089461A6DF12109040A405E6D164099
